:03000000020136C4
:0100030032CA
:0300330002045272
:100136007581E075D10375A40075A50075A60075D7
:10014600A70075E30175FFDE75FFAD758922758C15
:10015600F9758AF975B167E5B1B4E7FB75B28875CB
:10016600CA0075CBD1D28ED28C75EF0075F80175A9
:100176009D0475E60175F601E4F5D07800F608B839
:100186007FFB7880F608B8DFFB75620075A880787B
:1001960040763F08763F08B854F7C2A4C2A50000CF
:1001A60000D2A4D2A590041F784079547700900419
:1001B6001FC374019740051203F380031204090755
:1001C60008B70AEA3004D37E0078557940EE75F018
:1001D60002A429F9E65480C2056002D205E6547FDE
:1001E600B42B0877ED09773F0203E6B42D0877FFB5
:1001F60009773F0203E6B4410877FF09770802034F
:10020600E6E6B4FD0877FF0977FF0203ACE6547F04
:10021600B4FE0877000977000203ACB4200877FF24
:100226000977FF0203E6B4540877ED0977FE020367
:10023600E6B4450877FF0977060203E6B44808776F
:10024600FF0977090203E6B4670877FF09772702F3
:1002560003E6B4530877FE0977720203E6B4420850
:1002660077FB0977020203E6B43D0877FF09773783
:030276000203E69A
:10027900B4790877FF0977C60203E6B4710877FAFB
:100289000977C90203E6B4720877F309770902030B
:10029900E6B4730877FF0977020203E6B4500877DA
:1002A900FF09770C0203E6B4740877DB0977C90202
:1002B90003E6B4750877EF0977810203E6B4760897
:1002C90077DB0977F90203E6B4770877FF09770343
:1002D9000203E6B4780877DB0977F10203E6B46133
:1002E9000877FF0977C80203E6B4620877DE097761
:1002F900780203E6B44B0877F309778F0203E6B473
:100309006D0877EF09772B0203E6B4580877D2090D
:1003190077FF0203E6B44C0877FF0977C70203E6C3
:10032900B4630877FF0977B90203E6B4640877BFB5
:100339000977C00203E6B4650877DB0977CF0203C2
:10034900E6B4660877D709771C0203E6B44908774B
:10035900ED0977F60203E6B4520777F309778E8041
:100369007CB44E0777F60977C98072B4440777DE03
:100379000977CF8068B4550777FF0977C1805EB4E4
:10038900690777000977008054E6547F90043E7529
:10039900F002A4FF93F7090FEF93F730050519E76A
:0503A900547FF7080E6F
:1003AE00BE0D3FE56030E4055342BF802630E305C5
:1003BE005350BF801E30E505534EBF801630E20508
:1003CE00534ABF800E30E605534CBF800630E7031C
:1003DE005348BFC2040201A03005C319E7547FF78A
:1003EE0080BC0201D1E6F5B008E6F580E79352A095
:1003FE0012050D900429E79342A022E6F5B008E617
:10040E00F580E793529012050D900429E7934290E0
:10041E00227FBFFDFEF7FBDFEF7FBF8040020108AA
:10042E000420108040794390043EE693F719182279
:10043E00FFC0FFF9FF24FF30FF19FF12FF02DBFEA2
:10044E00FF00FF10C000C001C002C003C007C08380
:10045E00C082C0E0C0F0C0D078557940E562FAC3E2
:10046E00940A50371204F0E59BFBC394304064EBC2
:10047E00C3943A505EC3EB9430F6786206B60C0421
:10048E007600D204D0D0D0F0D0E0D082D083D00786
:10049E00D003D002D001D000C2FF32E562B40A16FA
:1004AE001204F0E59BF67B08785503FA548046F665
:1004BE0008EADBF680C4E59B1204F0E59BF67B02AE
:1004CE00785D03FA548046F608EADBF680AC786273
:0904DE000880B1EBF680A379401F
:1004E700E56275F002A429F9227855E56228F82219
:1004F700E5622582F582E5833400F5832279FA7A6D
:0F050700EDDAFED9FA227B167AEDDAFEDBFA2264
:00000001FF
