:030000000205C92D
:0100030032CA
:01000B0032C2
:0100130032BA
:01001B0032B2
:0300230002278E23
:03002B0002276148
:01003300329A
:01003B003292
:01004300328A
:01004B003282
:01005300327A
:01005B003272
:01006300326A
:01006B003262
:01007300325A
:030093000212D185
:03009B0002174009
:1005C9007581E075E90075D90075A41F75A5CC750D
:1005D900A60075A73F75B5FF75D10375E11475E2DE
:1005E9000075E30075B0C075FFDE75FFAD75892232
:1005F900758E30758CF9758AF975E68075D48075B4
:10060900D78075B16775B28875CA0075CBD1D28E9E
:10061900D28C75EF0075E34075E10E75F803759D91
:1006290031759850758780758E1075892075884049
:1006390075D90075DA0075EA0075FA9C75D84075A8
:10064900C800758DF4D28EC213758DF4758BFD803B
:1006590008902FE9D213758DDCD28E75E73075A815
:1006690080E47800F608B87FFB7880F6F208B8DFF6
:10067900FA1230FA900000E4F0A3E583B410F87898
:100689009876000876197881760108769078B2769E
:10069900FF74FFF585799A770279AE770575340588
:1006A90079AF77027400F585D204799B7700902C95
:1006B9008B12333578901230EE78941230EE78A0A0
:1006C9001230EE78CF1230EE90015879D3E583F7E6
:1006D90009E582F790047879C0E583F709E582F79F
:1006E90090079879C2E583F709E582F7900AB87906
:1006F900D9E583F709E582F775380175370178CDB2
:100709007600087601784076FD08B84CFA12276D14
:07071900122C3878407669CC
:1007200008B84CFA12276D122C38122C26434B10A5
:100730007C607D00122D90122B8E7527DB752400B6
:1007400075250075A890301D031227DAC217309561
:10075000FD2095FD74111231B1122B51F578122B39
:1007600051F579122B51F57A7878E620E743D200DB
:100770004480F61876FF804112276D80C9E53D3030
:10078000E70BE5AD543FF5AD75E730800DC3E53EB1
:100790009401F53EE53D9400F53D2004A9E5337054
:1007A0000B75336412276D122C2F80D114F5338012
:1007B000F6C200547FF6187600787AE67F05C313F8
:1007C000DFFCFA18E6C0E0C37F03C333DFFC4AF561
:1007D0007AD0E07F05C313DFFCFAE578C0E07F0341
:1007E000C333DFFC4AF579D0E020E70BC37F05C3B4
:1007F00013DFFCF57880087F05D313DFFCF57878EC
:1008000098E630E7028044789A793FB6013A7877E3
:100810001231A078B612352178B31230EE793F77D5
:1008200014789BB6631E902C7B12335712311D78BF
:10083000621230EE78C51230EE78B3122CDE799B5E
:100840007700807006020746B6021D78771231A045
:0A08500078B612352178B31230EEAD
:10085A00789B793F770AB613E1902E4680C1B6039A
:10086A001D78771231A078B612352178B31230EE9E
:10087A00789B793F7702B609C1902C6780A1B604AC
:10088A001D78771231A078B612352178B31230EE7E
:10089A00789B793F7702B604A1902C6B808177020E
:1008AA0078771231A078621230EE793FB7021A9047
:1008BA0001001230CE78621231A09001001230E2AB
:1008CA00900107123543020A76B70A7D9001201279
:1008DA0030CE90011C1230CE9001181230CE900109
:1008EA00141230CE9001101230CE90010C1230CE7C
:1008FA009001081230CE9001041230CE90010012FD
:10090A0030CE78621231A09001001230E2900107D5
:10091A0012354390010B12354390010F1235439063
:10092A00011312354390011712354390011B1235FA
:10093A004390011F1235439001231235439001273A
:10094A00123543020A76020A47B714FA900148128E
:10095A0030CE9001441230CE9001401230CE900138
:10096A003C1230CE9001381230CE9001341230CE83
:10097A009001301230CE90012C1230CE9001281204
:10098A0030CE9001241230CE9001201230CE900148
:10099A001C1230CE9001181230CE9001141230CEB3
:1009AA009001101230CE90010C1230CE9001081234
:1009BA0030CE9001041230CE9001001230CE78620F
:1009CA001231A09001001230E290010712354390D3
:1009DA00010B12354390010F123543900113123562
:1009EA004390011712354390011B12354390011FA2
:0909FA001235439001231235432C
:100A030090012712354390012B12354390012F1289
:100A1300354390013312354390013712354390012A
:100A23003B12354390013F12354390014312354346
:100A330090014712354390014B12354390014F12F9
:100A43003543802F9001081230CE9001041230CE2E
:100A53009001001230CE78621231A0900100123062
:100A6300E290010712354390010B12354390010FB9
:100A7300123543786E06E6200105B53F31D2018574
:100A83003F6E783FE6B40208902C7F1233578028DC
:100A9300B40A08902C67123357801DB41408902EA3
:100AA300461233578012902C6F123357800A856E8B
:100AB3000BE4F50AF509F50812311D78661230EEDC
:100AC300C3799A740297501D120402785E1230EEB5
:100AD3007890EA30E702789412315E120203785E6E
:100AE3001230EE80217898E630E703021190788186
:100AF300E630E737750A00750BC87898122B6370D8
:100B0300450212028079C3799A74049750F6785E8D
:100B13001231A012034378661230EE786A12315E06
:100B230012350F789C1230EE020FAA789AE6640110
:100B3300700F7982122CD37999122CD3801E020E56
:100B4300587981122B76789AE66401700A799912A2
:100B53002CD38008020C217998122B7678661231F7
:100B6300A0120402788412315E1201D17890EA3027
:040B7300E702789489
:100B770012315E120203785E1230EEEA547FFA9069
:100B87002CBF1233571201D650B03015C378B1B607
:100B970021557A507B1812046C120402C002C0035C
:100BA700C004C0057A507B2012046C120402123173
:100BB70094D005D004D003D0021202B7C002C003FC
:100BC700C004C0057A507B2C12046C120402123147
:100BD70094D005D004D003D002120203902CA312A4
:100BE70033571202B78050B622187A507B1012047E
:100BF7006C120402C002C003C004C0057A507B18FF
:100C070080A67A507B0812046C120402C002C0034B
:100C1700C004C0057A507B10808E301208902CC318
:100C27001233358006122D1C12046C120402902C0C
:100C3700A31233571202B7123194785E1231A01201
:100C4700020312034378661230EE120402EA547F5D
:100C5700FA902CAF1233571201D6502D30180830A6
:100C67000602800320052F78661231A0787B1230A8
:100C7700EE786A12315E12350F789C1230EE20063C
:100C87006678ACB60006020EB2020E58020E9978CC
:100C9700661230EE80D1EA547FFA902CB7123357A0
:100CA7001201D650C278AEB6090280BB06B60A0159
:100CB70016122B8E1230FA78B3122CDE786A122CA9
:100CC700DEC20FD20780BAD00BD00AD009D008C233
:090CD70014C206753934122F20F5
:100CE00012276D122C3880A0020DB9020DC5789C18
:100CF0001231A0120402EA547FFA902D8412335765
:100D00001201D640E3902D881233571201D650DBE2
:100D1000123194C008C009C00AC00B78BC1231A0BF
:100D2000902C631233571201D660A3902D8012339A
:100D300057120203D00BD00AD009D0081202B7789C
:100D4000C91230EE120343784F1230EE301E3330AA
:100D5000063078C930170478C97681C2AF75997F9B
:100D60003099FDC2998699083099FDC299869908F3
:100D70003099FDC2998699083099FDC299869908E3
:100D8000D2AF7840762008B84BFA78C91231A090DB
:100D90002D8C1233571202B778B8760078B97600E6
:100DA000902C8B1233571201D6402678B806902C1F
:100DB000BB1233571202B780E79030B0122C0912E1
:100DC000276D020F4E9030A6122C0912276D020FCC
:100DD0004E78B8B60019902C8B1233571201D650AA
:100DE0000E78B916902CBB12335712020380E778A5
:100DF00053795212329A78B8B6002108B6FF050628
:100E0000785B800306785C79457F05E62430F71926
:100E100018DFF8784F122CDE78B9801C785CC37923
:100E2000B8E81497F879457F05E62430F71918DFFC
:010E3000F8C9
:100E3100784F122CDE78B8E6F552122E732552F552
:100E4100527853795212329A855C48855B477549CD
:100E510066434B10020F4E30050830180578AEB6C8
:100E6100001A30041490301B122C093006099030FE
:100E7100A6122C0912276DD217020C8816B6FF0193
:100E810006122B8E1230FA78B3122CDE786A122CED
:100E9100DEC20FD207020C8816020FAAB702077929
:100EA100467720020F2779457720097720807780C0
:100EB1007520145C2010592017F52011F2200BEF3A
:100EC100789C1231A0123127784F1230EE78537985
:100ED1005212329A785C79467F07E62430F7191866
:100EE100DFF87847762D7840762B300202762D791F
:100EF100AE7848E7B4080B20151E763018766308E3
:100F01008016B40910201510763118766308800810
:100F1100020FA380872432F608764108760008760E
:100F21001079AFB703ED784AE6300F034408F6793C
:100F31009AB702054420F6800BB701054440F680BC
:100F4100034410F6784AE63005034404F6784AE68D
:100F51003018034402F6301A07C21A534AFE8005BC
:100F6100D21A434A0130151779B17848765408B737
:060F710021047631800925
:100F7700B72204763280027633301203434A803038
:100F87000A03434B0230180879AEC374019740092E
:100F9700309106753935122F2012276D789A79AC62
:100FA700B60152789F79BBE67F07C313DFFCFA18B7
:100FB700E6C0E0C37F01C333DFFC4AF719D0E07F07
:100FC70007C313DFFCFA18E6C0E07F01C333DFFC79
:100FD7004AF719D0E0C37F07C313DFFCFA18E67F8F
:100FE70001C333DFFC4AF719E620E70CC37F07C3C9
:100FF70013DFFC800902117B7F07D313DFFCF73077
:101007001E11301704789C7681749CF5267524048C
:1010170075997F300C3712324912326A12321578BD
:10102700AEE67938B70104F5348010B70204F5321B
:101037008009B70304F5318002F5301524E52470E3
:101047000CC20C789A760275A89002069A902C5FCB
:1010570012333578BB123521EDF5D2ECF5D378CFC5
:101067001231A0902C8F1233571201D65020902C9A
:101077008B1233571201D1900E00EAF0A3EBF0A3C5
:0B108700ECF0A3EDF0200909200A089E
:10109200021156021166804512324912326A123228
:1010A2001578AEE67938B70104F5348012B7020438
:1010B200F532800BB70304F5318004F5308000E58A
:1010C2008654EFF5860000E5864410F586E5DA449D
:1010D20046F5DA75CDD075CC00D2CAD2AD78CDE660
:1010E200FC08E6FDE4FBFA120402789AB6010890C5
:1010F2002C8F1233578009B60225902CBB1233571E
:10110200120203900E00E0F508A3E0F509A3E0F552
:101112000AA3E0F50B12016678CF1230EE8035B6E5
:10112200030B902C8F12335712020380EBB6041478
:10113200902CBB1233571202B7902C9312335712D2
:10114200020380D4B6050B902C8F12335712020380
:1011520080C680C4300708122C52122C52C20702D9
:10116200077D80F078CF1231A0902C8B123357126A
:1011720001D178CF1230EE80DBB602057701020F83
:10118200AAB603057701020FAA7703020FAA788392
:10119200B60010E584F536E585F537902BD4122B91
:1011A200C88018B6031B78621231A0120402788438
:1011B2001230EEE536F584E537F5857883060207C9
:1011C20046B606F77600789876020876581230FA14
:1011D200300A2078CF1231A0799AB70211902C9B55
:0B11E2001233571201D178CF1230EE0B
:1011ED00020746902C8B80ED0207467981770C091A
:1011FD007780020B49200AF37883B60016E584F553
:10120D0036E585F537E58544040000543FF5850640
:10121D00020746B6033DE577FAE578FBE579FCE58F
:10122D007AFD12040278881230EE788412315E1243
:10123D0001D1123194902CAB1233351202B7EA540E
:10124D007FFA78901230EEE585543BF5857883066C
:10125D00020746B6063FE577FAE578FBE579FCE54A
:10126D007AFD120402788C1230EE788412315E12FF
:10127D0001D1123194902CAB1233351202B7EA54CE
:10128D007FFA78941230EEE536F584E537F58578FA
:10129D008306020746B6090F76007981773E0977F6
:1012AD00801230FA020746060207460216E80214BB
:1012BD006902143E0214290213F102170075AD00E4
:1012CD0075B0C03275E70075AD00C0E0C0D0C0008C
:1012DD00C001C002C003C004C005C006C007C08263
:1012ED00C083122C4578B2744026F9A73C301F05F7
:1012FD00C21F0213F1E5B020E644E5B044FFF5B09E
:10130D00E5B030E6A63004A675B0FEE5B030E6A730
:10131D0020123275B0FDE5B030E69675B0FBE5B044
:10132D0030E64F75B0F7E5B030E68975B0EFE5B052
:10133D0030E61575B0DFE5B030E65802140730061B
:10134D00B9C214C2060216E8200A0BD20A434B0298
:10135D0012276D021407C20A534BFD12276D02149A
:10136D000779B0B70102800407122BF112276D0225
:10137D00140379AE17B7FF047700807A1230FA782C
:10138D00B3122CDE786A122CDEC20F122B8E806601
:10139D000216E8789AC374049640F52015F22006DB
:1013AD0013C204D21478B17611902F66122C091243
:1013BD002C388073C214C206D20478B17600803AFC
:1013CD0030182079AEC37403975006E58454F7F5B1
:1013DD0084E7640370028005E764027006E58544C6
:1013ED0008F58522201511201807D2181213CD806B
:1013FD0005C218122B8ED2078000789A793DB6015E
:10140D000877000977010216E8B602087700097718
:10141D00020216E8770009770A0216E8C204D21014
:10142D0079B77704122BEF793D77030977E8021628
:10143D00E8C378AF799A74029740BFB6010476027B
:10144D0080B8B60204760380B1760180AD02136ECA
:10145D0075B0F720B6D1D204C210809E301035750C
:10146D00B0FBE5B020E6E979B7B7050280B9071200
:0E147D002BEF80B3783D76270876100216E834
:10148B0002155978B17600C214C206C211D2047883
:10149B00B276FF0214073014E775B0DF30B6E4788C
:1014AB00B1B6111175B0FB20B61C76129030071235
:1014BB002C09021434B6121175B0FB20B608761144
:1014CB00902F66122C09021434B6131175B0FB2041
:1014DB00B6F47611902F66122C0902143475B0FBFA
:1014EB00E5B020E635E53BB4071478B2B60716E550
:1014FB003AF678B2744026F909873C02143478B274
:10150B00B6080280EA78B2744026F909873C78B2B3
:10151B0006C219B609011802143475B0FEE5B020E5
:10152B00E611E543B42B0675432D02143475432B9A
:10153B0002143475B0FDE5B020E603122EA0793D00
:10154B0077010977F40216E80216420215E530110D
:10155B00FA78B17415C396401675B0FB20B60A78AD
:10156B00B1B61508761112232F0214340680F774C6
:10157B0023C396401475B0FB20B6EEB62308762134
:10158B0012232F0214340680DDB6313075B0FB20E8
:10159B00B6D7301312902FDF122C09534B03434B4A
:1015AB0080C21378008010902FE9122C09534B0343
:1015BB00434B80D2137800D2080214347452C39672
:1015CB0040A775B0FB30B60975B0FD20B69B021570
:1015DB00460216AC0214340216E8300BFA79B0B797
:0A15EB00111375B0FBE5B020E6EA2D
:1015F5007712903037122C09021434B7121375B0D4
:10160500FBE5B020E6D47713903041122C09021483
:1016150034B7131375B0FBE5B020E6BE77149030F0
:101625007E122C09021434B7141375B0FBE5B020F3
:10163500E6A87711903025122C0902143475B0DF15
:1016450030B69778B0B6210E7622903060122C090C
:10165500122C52021434B6220790304C762180EDBC
:10166500B6232575B0FB20B62978B2744026F90952
:10167500873CC21978B2E53BC3966006E53BF602A6
:101685001434E53AF6021434B6310280D6B6410B6D
:1016950080D175B0FD20B6ED021546C37431965064
:1016A500E475B0FB20B630B6430280D9B64402805B
:1016B500D478B2744026F909873C78B2E53BC396E5
:1016C5007006E53AF602143478B2744026F90987B3
:1016D5003C122ED202143475B0FD30B60302143418
:1016E500021546D083D082D007D006D005D004D0CD
:1016F50003D002D001D000D0D0D0E075AD0075B0D8
:10170500C0C219E58654EFF5860000E5864410F55C
:1017150086E5DA4446F5DA75CDD075CC00D2CAD265
:10172500AD320222F00222F002186002183E0218C1
:101735001D75AD0075B0C0320219AB75E70075AD0A
:0717450000C0E0C0D0C000AD
:10174C00C001C002C003C004C005C006C007C082EF
:10175C00C083122C4578B2744026F9A73CE5B02022
:10176C00E7BCE5B074FFF5B0E5B030E7B13004B1DB
:10177C0075B0FEE5B030E7AC75B0FDE5B030E79B79
:10178C0075B0FBE5B030E79F75B0F700000000E5E1
:10179C00B030E76F75B0EFE5B030E79575B0DFE5C9
:1017AC00B030E722799A783DB701087600087601C7
:1017BC000222F0B7020876000876020222F07600C8
:1017CC0008760A0222F02006FA20151C201225C2E7
:1017DC0004D211C217902F8E122C09534B031227CF
:1017EC006D78B176110219C578B17600C215122B3D
:1017FC008E0222F0C212122B8E78B176000222F0E9
:10180C000223832012FA200504D2058097C205809A
:10181C009320120779AE07B70A031780871230FAA4
:10182C0078B3122CDE786A122CDEC20F122B8E02C9
:10183C0017B0200F0FD20F789C1231A0786A12309B
:10184C00EE0217B0C20F902C63123335786A123047
:10185C00EE0217B030102175B0FB534A8F79B720C8
:10186C00B70DB700030222F017122BEF0219C502B5
:10187C00194E0219EE02221C3014F778B1B6112859
:10188C0075B0FB20B730B6110B7612903007122CC6
:10189C00090219C5B612077611902F6680F0B6139F
:0A18AC0007761290300780E6804CAA
:1018B6008057C214C20602143402143475B0F720DD
:1018C600B7F7B611EBD206D204534B07434B1002BF
:1018D60017B080E8B6120D75B0FB20B7F5760B8011
:1018E600BC02221CB613FA75B0FB20B7E57612804F
:1018F600B6C214D204A8B276FF0217B0B612E575C6
:10190600B0FB20B7CD7611809478B1E6B412E276BA
:101916002178B27604753A04753B07902F70122C25
:1019260009122EDF534B0F434B400217B0B6210C62
:1019360078B216B6020106C2190217B002221C06B8
:10194600050403020102143475B0F720B7F7B70592
:1019560049794AE7548F4440F78000789A901945B0
:1019660079B7E793F6122DDF122D90122B8E1230D7
:10197600FAD204C210534A8FC3789A79AF7402968A
:10198600500577010217B0B702FA77020217B0794D
:101996004AE74410F712276D80C1B704F2794AE787
:1019A6004420F780B62012DCC204903041122C0984
:1019B600D20B534BEF434B0112276D78B076137859
:1019C6003D76030876E80222F0021B9478B0760092
:1019D60078B17600C20BC214C206C211D20478B224
:1019E60076FF021D130217B0300BDE75B0DF30B77D
:1019F600F475B0EF30B7D578B0B6114A75B0FBE5DF
:101A0600B020E70DB6110D761490307E122C0980A9
:091A1600AE021BACB6120A7611F7
:101A1F00903025122C09809EB6130A76129030371B
:101A2F00122C0980917613903041122C098087B6C1
:101A3F00141A7613903041122C090217B0B6120205
:101A4F0080B1B6130280ACB6140280A7B621177509
:101A5F00B0FB20B776B6210B7622903060122C099E
:101A6F000217B0021B90B6220E80E402166E021C03
:101A7F00310222F0021BC2B623F475B0FB30B7F16E
:101A8F0075B0F720B7EEC3E5479430B40002740188
:101A9F00F5381231F779B8770309772079D57700C0
:101AAF000977C7E4F0A379B91231DC78B8E630E7EB
:101ABF00F2C20BD2041231F712321578B276FF024E
:101ACF001D130217B0021BC2021B8675B0F720B799
:101ADF00F4B621F490015079B87703097720E4F038
:101AEF00A379B91231DC78B8E630E7F29001509063
:101AFF00047079B87703097720E4F0A379B912312C
:101B0F00DC78B8E630E7F290047090079079B877F8
:101B1F0003097720E4F0A379B91231DC78B8E63005
:101B2F00E7F2900790900AB079B87703097720E42D
:101B3F00F0A379B91231DC78B8E630E7F2900AB049
:101B4F00E538B4011790015079D3E583F709E582A1
:0F1B5F00F7C20BD20478B276FF021D13B402074F
:101B6E0090047079C080E4B4030790079079C28026
:101B7E00DA900AB079D980D37623753B08753A0787
:101B8E00805676218025021D8675B0FBE5B020E7D4
:101B9E000DB612057611021A1F7612021A2C75B0A6
:101BAE00F720B71078B0B6112A762190304C122C4F
:101BBE00090219C578B2744026F919873CC2197802
:101BCE00B2E53AC3967006E53BF60217B0E53AF673
:101BDE000217B0B61215763190306A122C09E5381C
:101BEE002430F54778B276070219C5B6141176611E
:101BFE00903088122C0912259E122C380219C576A7
:101C0E004180D578B2744026F909873C78B2E53B1D
:101C1E00C3966006E53BF60217B0E53AF60217B03A
:101C2E00021CB3B631FA75B0FB30B7D775B0F720DA
:101C3E00B7827632C3E5479430B400027401F538AA
:101C4E00903056122C0978CE7952E6F71819E6F72D
:101C5E0019E4F719F77853795212329A785C794869
:101C6E007F04E62430F71918DFF878B27605753B55
:101C7E0008753A05789AB60609534BF0434B0402A1
:101C8E0017B0B60309534BF0434B200222F0C37436
:101C9E0003965009534BF0434B400217B0534B0F72
:051CAE00C2190217B08D
:101CB300B6327675B0FB20B71FC21978B2744026CE
:101CC300F919873C78B2E53AC3967006E53BF6020C
:101CD30017B0122EC50217B075B0F720B7CF763301
:101CE3007F0A7853122CE61231E7784F7953123278
:101CF300DA794F78CEE7F61809E7F678D576000853
:101D030076C71231F712321578B276FFD204C20BBE
:101D1300789AB6050C902F34122C0912276D0217EE
:101D2300B0B606FA902F2A80EFB6332B75B0FB308E
:101D3300B78775B0F720B7E676347F0A7853122C4D
:101D4300E6122D0C784F79531232DA122DEE12046B
:101D5300020217B0021CBCB6346475B0FB30B7F492
:101D630075B0F720B7EB763578B276FF78CF76305B
:101D7300C20BD2040217B0021F8E021FA70219D290
:101D83000222F030113875B0EF30B7F475B0DF30A0
:101D9300B7EB78B17415C396402175B0FB20B7D764
:101DA30078B1B611D57615902FB6122C090219C544
:101DB300C211D20478B176000219C5022021B641BE
:101DC300307642C3E5479430B400027401F538908D
:101DD3003074122C09534BEF78B27607753B0975B3
:101DE3003A07122C380217B0021ED4021EDE021C60
:101DF30011B642F775B0FB30B7F475B0F720B7E80A
:101E0300764378B276FF7F0A7853122CE6122D0CB4
:071E1300784F79531232DA17
:101E1A00122DEEEDF537120402902C8B1233571265
:101E2A0001D1902C93123357120203120343C002BA
:101E3A00C003C004C0051231F7D005D004D003D0C6
:101E4A000279D8E5822DF582F7E5833CF58319F707
:101E5A0012327C902C6712335712311D12312778B7
:101E6A004F1230EE7853795212329A785C79457F64
:101E7A0007E62430F71918DFF87847762D78407688
:101E8A002B300202762DE538B4010479348010B47F
:101E9A00020479328009B4030479318002793078F6
:101EAA0048E7B40808763018766308800EB4090843
:101EBA0076311876630880032432F6087641434B5C
:101ECA001012276D122C380222F0783D760308761C
:101EDA00E80222F0B6435275B0FB20B70BC20BD210
:101EEA000478B276FF0217B07644E53704F552F566
:101EFA0037E4F551F550F54F7853795212329A7802
:101F0A00407F0A7420F608DFFC903074122C0953C3
:101F1A004BEF785C79497F03E62430F71918DFF82C
:101F2A0012276D122C380222F0B64419764379D85A
:101F3A00E7F58219E7F583A3A3A3A3E583F709E5E8
:011F4A008214
:101F4B00F7021E5AB661117662903092122C09126A
:101F5B002693122C520217B0B66211766390309C06
:101F6B00122C0912249F122C520217B0B6630E7654
:101F7B0061903088122C0912259E122C520217B038
:101F8B00021DC178B175B0F720B7F5B611157621E2
:101F9B00902FC1122C09534B030219C51612232F74
:101FAB000219C5B61206022AA80219C5B6132A765B
:101FBB00317A507B2C120454E508B4000E902FDFBD
:101FCB00122C09434B80C2130219C5902FE9122C16
:101FDB0009D213434B800219C5B61415D20478816C
:101FEB007600087600C2110222F078B176520221F7
:101FFB00243090F6753936122F2012276D122C458E
:10200B0080EF80E6765112232F78B27607753B0965
:10201B00753A070219C578B17423C396403F75B062
:10202B00FB20B715B6210B7623902FD5122C090266
:10203B0019C51612232F0219C575B0F720B719B69B
:10204B00210C122E4AD215D204C2110217B0B6229D
:10205B000280EF80ED0221837FFF021434B6317CC6
:10206B0075B0FB30B7EF75B0F720B7EC79007A504D
:10207B007B00120499792C74003013027401F390D5
:10208B0050007FFF12043E7FFF7900905000120436
:10209B008075EF10C28E201305758DF48005758D3C
:1020AB00DCD28EC211D2040222F002220A0221A239
:0F20BB00B652F775B0FB20B71778B2744026F90C
:1020CA0019873C78B216C219E53AB600010602171A
:1020DA00B075B0F730B7030217B00221B9B651D1C3
:1020EA0075B0FB30B7C875B0F720B7737F0E784F5D
:1020FA00122CE67849795C7F03C3E69430F7181905
:10210A00DFF77A507B28120454800FE508B55A523B
:10211A00E509B55B4DE50AB55C4878B17652902F72
:10212A00FD122C09122E732552F552785379521248
:10213A00329A855C4875472D434A80434B1079AEE5
:10214A007848E7B4080776301876638008B409053A
:10215A00763118766378B27601753A01753B0502D5
:10216A0017B0753932122F2012276D122C38C2116E
:10217A00D20478B276FF0217B030130E902FDF1216
:10218A002C09434B80C2130219C5902FE9122C095E
:10219A00434B80D2130219C578B2744026F91987C5
:1021AA003C78B216C219E53AB60652060217B07F53
:1021BA000E784F122CE67845795C7F05C3E6943099
:1021CA00F71819DFF7784F79531232DA122DEE1217
:1021DA000402902CBB12335712020378A41230EE79
:1021EA00C211D212434A80D20478B276FF783D7681
:1021FA00FF0876FF122C380222F00217B00217B03D
:10220A00B642AC75B0FB30B7F475B0F720B7EE0242
:07221A0022F075B0FEE5B0F3
:1022210020E7030217B075B0FBE5B020E72C78B2C8
:10223100E53AB40309B6030BE53BF60217B0B60461
:102241000280F578B2744026F909873C78B216C24B
:1022510019E53AB4036BB602660675B0F7E5B0202E
:10226100E75D78B1E6B6215E76117F0E784F122CCC
:10227100E6122D57784F79531232DA122DEE1204ED
:102281000278BC1230EE902C631233571201D660E3
:102291001078B276FF902F66122C09534BBF0217AC
:1022A100B078B276FF753934122F2012276D122CB7
:1022B1003878B17600C214C206D20478B276FF80B3
:1022C1002EB6032B80937F0E784F122CE6122D67CA
:1022D100784F79531232DA122DEE120402301B04B8
:1022E100EA4480FA79B277FF78B176110218A3D067
:1022F10083D082D007D006D005D004D003D002D03D
:1023010001D000D0D0D0E075AD0075B0C0C219E5E4
:102311008654EFF5860000E5864410F586E5DA443B
:1023210046F5DA75CDD075CC00D2CAD2AD3278B1CE
:10233100B61107902F8E122C0922B61205902F98F4
:1023410080F4B61305902FA280ECB61405902FAC43
:1023510080E4B61505902FB680DCB62105902FC11B
:1023610080D4B62205902FCB80CCB62305902FD5F3
:0D23710080C4B63105902FDF80BC902FF3A3
:10237E0080B7022408200DFA789C1231A0120402B4
:10238E00EA547FFA12319478A41231A01202B79057
:10239E002CA312335712020312034378A01230EE0D
:1023AE0079007A507B00120499122D2B78A01231ED
:1023BE00A0EAF309EBF309ECF309EDF39050007F7B
:1023CE00FF12043E7FFF790090500012048079AE18
:1023DE00B70511D20D902BEDE493F584A3E493F59C
:1023EE00850217B0C212D2169030C4122C091227D1
:1023FE006D122C38122C380217B07A507B1412043E
:10240E006C120402C002C003C004C0057A507B0CDB
:10241E0012046C120402123194D005D004D003D0F1
:10242E00021202B7902CA3123357120203C002C03D
:10243E0003C004C005789C1231A01204021231941C
:10244E00D005D004D003D0021202B7902CA31233C1
:10245E005712020312034378A01230EE79007A501D
:10246E007B0012049978A01231A0792CEAF309EBC3
:10247E00F309ECF309EDF39050007FFF12043E7F59
:10248E00FF7900905000120480C20D122B8E022391
:10249E00F21231F7E582FFE583FE123249C3E5827F
:1024AE009FFF7006E5839EFE606512324978D7E580
:0124BE00839A
:1024BF00F608E582F678B8122CDE78D6760012315F
:1024CF00F7E582FFE583FE78D7E6F58308E6F58228
:1024DF00C3E5829404F582E5839400F58379D7E50B
:1024EF0083F709E582F7C3E5829FFF7006E5839EB8
:1024FF00FE601B12258112040212319478B812313A
:10250F00A012016678B81230EE78D60680B0122588
:10251F008112040212319478B81231A01201667838
:10252F00B81230EEE4FAFBFC78D6E62401FD120473
:10253F000212319478B81231A01202B7902CBB124C
:10254F0033571202B7120343123127784F1230EE6E
:10255F007853795212329A785C79497F05E62430A4
:10256F00F71918DFF87844762B300202762D434B9B
:10257F000522E0FAA3E0FBA3E0FCA3E0FD22C3E504
:10258F00829404F582E5839400F5832202263D129E
:10259F0031F7E582FFE583FE123249C3E5829FFFE3
:1025AF007006E5839EFE60E412324912258D78B8DD
:0D25BF00E0F608A3E0F608A3E0F608A3E0AC
:1025CC00F6A378B81231A012040278B81230EE12C9
:1025DC00258D78D7E583F608E582F678D676001255
:1025EC0031F7E582FFE583FE78D7E6F58308E6F55B
:1025FC0082C3E5829404F582E5839400F58379D750
:10260C00E583F709E582F7C3E5829FFF7006E58352
:10261C009EFE601D78B81231A012319412258112E1
:10262C0004021201D6500578B81230EE78D6068026
:10263C00AE78B81231A01231941225811204021214
:10264C0001D6500578B81230EE78B81231A0902C23
:10265C00BB1233571202B7120343123127784F12B1
:10266C0030EE7853795212329A785C79497F05E6CC
:10267C002430F71918DFF87844762B300202762DC7
:10268C00434B05220227321231F7E582FFE583FE28
:10269C00123249C3E5829FFF7006E5839EFE60E41B
:1026AC0012324912258D78B8E0F608A3E0F608A39B
:1026BC00E0F608A3E0F6A378B81231A01204027871
:1026CC00B81230EE12258D78D7E583F608E582F640
:0D26DC0078D676001231F7E582FFE583FE27
:1026E90078D7E6F58308E6F582C3E5829404F58296
:1026F900E5839400F58379D7E583F709E582F7C384
:10270900E5829FFF7006E5839EFE601D78B8123151
:10271900A01231941225811204021201D6400578C3
:10272900B81230EE78D60680AE78B81231A01231E0
:10273900941225811204021201D6400578B812308C
:10274900EE02265578CF1231A0902C8B12335712F6
:1027590001D178CF1230EE22E5DA54BFF5DA75C827
:1027690000C2AD32E5E7FA75E700122F0278407F23
:102779000CC287E6F59B20FBFDD2871231AC08DF3E
:10278900F0EAF5E722C0D0C0E0E5246017C3940160
:10279900401430990EC299F524852601E70526F5DE
:1027A90099800300C299E525C39403400A75250061
:1027B9007527DBD21D8015309812C298E599A92793
:1027C900F705270525E525B4030280E1D0E0D0D03F
:1027D90032754E7F78DBB64202800302286D08B657
:1027E9000005C21E022A4DB60125D21E789AE6B40A
:1027F900060DD20C75A8807524C8C21E022A4DB4D4
:10280900050AD20C75A8807524C8C21E022A4D7803
:08281900F4C2AF79AEE7F60846
:10282100799AE7F6087938E7F60879AFE7F608E527
:1028310020300F0444808002547F3018044401800A
:102841000254FEF60879CDE7F60809E7F60879BCE7
:10285100E7FA09E7FB09E7FC09E7FD120343ECF698
:1028610008EDF67526F4752409022A4DB64C1708B1
:10287100E6C3940A500AE678AEF6122B8E022A4D70
:10288100754E7D022A4DB6543208E6C394074002C4
:102891008049E6789AF6B4060DD20C75A8807524A5
:1028A100C8C21E022A4DB4050DD20C75A88075242C
:1028B100C8C21E022A4DC20C022A4DB6524508E674
:1028C1005403B40005C206022A4DB40105D2060222
:1028D1002A4DB40306754E7D022A4DE6C313C31378
:1028E100C002C003C004C005FC08E6FD7B007A00FD
:1028F10012040278BC1230EED005D004D003D0020D
:10290100022A4DB6480E08E6C3940450CEE678AFCD
:10291100F6022A4DB6410E08B60005C205022A4D3F
:10292100D205022A4DB6512D08B60112D20F789C5C
:082931001231A0786A1230EEA9
:10293900122B8E022A4DB6029AD2AFC21DC20F9037
:102949002C63123335786A1230EE022A4DB64911DA
:1029590008B6000FD218E54EF599C21DD21F021212
:10296900D18013B6010DC218E54EF599C21DD21FCB
:102979000212D1022A4DB65300B64D1A08E6540781
:10298900B40516E6C313C313C3137938F71231F725
:10299900123215022A4D022A42C394065007E6B69E
:1029A9000009022A56754E7D022A4DB6030BC20A4A
:1029B900534BFD12276D022A4DB60211D20A79D561
:1029C90077000977C7434B0212276D8077B6045702
:1029D9001231F7123215C2AF7524C875997F1232B8
:1029E9007C79D8E582F7E58319F7902C671233577C
:1029F90012311D123127789C3099FDC299869908A8
:102A09003099FDC2998699083099FDC2998699082D
:102A19003099FDC299869979D8E7F58219E7F58346
:102A2900D524BBD2AF801DC2AFE6C313C313C313F2
:102A390079CDF70809E6F7800BB67F0575997F8090
:102A490003754E7EE54EF599D2AFC21D22C2AF1273
:102A590031F779B87703097720E4F0A379B912310E
:072A6900DC78B8E630E7F26B
:102A70001231F712321580D5C2AFE538B40117799B
:102A8000D3E583F709E582F779D61231DC78D5E60C
:102A900030E702C20E22B4020479C080E4B4030419
:102AA00079C280DD79D980D9C2AC7599553099FD4C
:102AB00078B876BE309825E599B45512C299C29877
:102AC0007D0A7840762D08DDFB12276D80DC753994
:102AD00033122F2012276D122C4580E078B8B600F3
:102AE0000280031680CE122C2FC299753933122F13
:102AF0002012276D122C4580B17A08D29733929616
:102B0000122B24C297122B24DAF1D296227A08D201
:102B100097122B24C297A29633122B24DAF1227E2D
:102B200030DEFE227E10DEFE22C392B1F5A0D2B3CB
:102B3000122C21C2B375A0FF22C392B1D2B2D2B37C
:102B4000122C21E5A0C2B3C2B222122B3920E7FA1F
:102B5000227A08C297122B24A29433D297122B24E4
:102B6000DAF122E6FC08E6FD7B007A0075080075C4
:102B7000090012331F22E7FC09E7FDC202C20390DD
:102B80002C8312335712350FEDF719ECF72220156D
:102B90003379AEE723FC902BD593FAE58454014AB0
:102BA000F5840CEC93FBE58554014BF585799AB7D8
:102BB000010E79AE7405C3975006E5844402F5848E
:102BC0001213CD22122E4A22E4E493FBE58554BF72
:102BD0004BF585228088D688F688D688F69AD69ACC
:102BE000F6ACD6ACF6C8D6C8F666E632E618EE798C
:102BF000B778407B0A75F00AE7A4FC902F2A93F679
:102C0000080CECDBF9534B03227B0A7840E493F683
:102C100008A3DBF9534B032279787A02DAFED9FA5A
:102C2000227B8BDBFE2279FA7AEDDAFED9FA227961
:102C3000107AEDDAFED9FA227D1F7EFF7FFFDFFEDC
:102C4000DEFADDF6227D037EFF7FFFDFFEDEFADDAA
:102C5000F6227D0D7EFF7FFFDFFEDEFADDF622002D
:102C60000007FF000000000000000A00000005004F
:102C7000000004000003B9000003E8000000640045
:102C800000000200000001497424003F8000004061
:102C90000000004080000040A0000040E000003F35
:102CA000741EDF47C350003F80034748435000482D
:102CB00056D8004856D800461C4000412000004825
:102CC000742400000186A00000032000000150C011
:102CD000400000C3E79405F719E79400F7227F044A
:102CE000E4F608DFFC22E4F608DFFC227848795C91
:102CF0007F02C3E69430F71819DFF7227849795C30
:102D00007F06C3E69430F71819DFF7227849795C1B
:102D10007F03C3E69430F71819DFF72279AEE72373
:102D2000FC902D3293FAA3EC93FB2279AEE7232398
:102D3000F922500050045008500C501050145018F4
:102D4000501C502050245028502C000186A0AA0866
:102D5000AB09AC0AAD0B227847795C7F04C3E694DB
:102D600030F71819DFF7227848795C7F05C3E694BD
:102D700030F71819DFF7C21BE543B42D02D21B222E
:102D80004E6E6AA843FA00004856D80049742400E1
:102D900074031231B1EC1231B1ED1231B17402127F
:102DA00031B174A11231B174741231B12095FD7436
:102DB000021231B174811231B174741231B12095A3
:102DC000FD74021231B174211231B174741231B137
:102DD000220000600060006001600160011333792F
:0D2DE0009A902DD1E723FF93FC0FEF93FD98
:102DED00227852E6FA18E6FB18E6FC18E6FD227882
:102DFD00AEE6902E1A75F004A4FF93F508A3EF9399
:102E0D00F509A3EF93F50AA3EF93F50B223F506B52
:102E1D007B3F507FCC3F4F9D0B3F4FE8693F502983
:102E2D004A3F50639E3F4BC9F03F4C063B3F50EF2E
:102E3D00DD3F512AD9000000390000001478B1B6E9
:102E4D00210D902BE9E493F584A3E493F58522B647
:102E5D002205902BEB80EE902BED80E9020304050B
:102E6D00060708090A0B78AEE6902E699322C2195F
:102E7D0079B2E7784028F806B63A03763022C37463
:102E8D003096400276302280E5B641FB800AB6319D
:102E9D00F8800578B0B623F6C21979B2E7784028E4
:102EAD00F806B6350476318006B63003763122C386
:102EBD007430964002763022C21978B216E6C39568
:102ECD003A50010622C21978B206E53BC39650016D
:102EDD00162278BC1231A0120343784F1230EE78CF
:102EED0053795212329A785C79477F04E62430F791
:102EFD001918DFF82278B2B6FF03C21922744026E2
:102F0D00F9201907873C7720D21922A73CC2191244
:102F1D002C45229030BA122C0985394622FD543D9C
:102F2D00326D67FDFDFDFDFD543D31306D67FDFDDD
:102F3D00FDFD543D35306D67FDFDFDFD543D6431A6
:102F4D0067FDFDFDFD202020543D31672020202010
:102F5D0020543D31306720202042753474797674C9
:102F6D0054772020553D2020202020206520423DF3
:102F7D002B20202020202020207145487220202049
:102F8D002020544579542D743371205445795420A3
:102F9D00523520202020794B3050205235202020D2
:102FAD002041424B2020202020204B41767473502D
:102FBD0020202020205445795420202054312054A5
:102FCD004579542020205432205445795420202016
:102FDD00543320202035373620202020202020314A
:102FED00393220202020614150307677203030302A
:102FFD0020303030303020202041743371204B3060
:10300D0048795420202042755830782020202020E7
:10301D00304C4C2020202020202030347479544B0B
:10302D00412020203041717954202020334161749A
:10303D007977202020206150307971305450202034
:10304D002061307648416220202074485420303071
:10305D0030306720207376304B20202020202073C5
:10306D0076304B2030202030547934455420303088
:10307D003179544154747954744B41717448202002
:10308D00202020202071414B7920202020202079E4
:10309D005045782020202020202020304C4C2049E5
:1030AD002020202020304C4C206620202020204540
:1030BD00525220202020202020454E442020202028
:1030CD00207F04E0C083C082A3A3A3A3F0D082D04D
:1030DD0083A3DFEF22EAF0A3EBF0A3ECF0A3EDF076
:1030ED0022EAF608EBF608ECF608EDF6227F509092
:1030FD0001007400F0A3DFFAF56EC201227F04E631
:10310D00F70908DFFA2212312712348A12313422DC
:10311D001231271233C512313422EA335006D2024E
:10312D0012313B22C2022230020312313B22EDF456
:10313D002401FDECF43400FCEBF43400FBEAF43430
:10314D0000FA2212312712331FC0D0123134D0D0E1
:0D315D0022E6F50808E6F50908E6F50A087F
:10316A00E6F50B22C8F9C87C03770009DCFB7B1063
:10317A00C333CA33CAC8F9C87C03FDE737D4F70991
:10318A00DCF9ED4003DBE9C300228A0885030985DF
:10319A00040A85050B22E6FA08E6FB08E6FC08E6BF
:1031AA00FD227B4BDBFE227A08C3C297003392963C
:1031BA00122B24D297122B24DAF0C296227847795E
:1031CA005CC3E69430FFC39405400474048001EFA5
:1031DA00F722C3E79401F719E79400F722784879B0
:1031EA005C7F04C3E69430F71819DFF722E538C389
:1031FA009401FDE4FCFBFA902CC712335712348A6F
:10320A00ED2450F582EC3401F58322E538B4011D32
:10321A0079D3E583F709E582F779D61231DC78D5D7
:10322A00E630E708C20A534BFD12276D22B40204A6
:10323A0079C080DEB4030479C280D779D980D3E516
:10324A0038B4010A79D3E7F58309E7F58222B40293
:10325A000479C080F1B4030479C280EA79D980E69E
:10326A00789C1231A0EAF0A3EBF0A3ECF0A3EDF006
:10327A00A322E0FAA3E0FBA3E0FCA3E0FDA3789C71
:10328A001230EE227A0A80027A04E4F608DAFC2284
:10329A007A0512329418880489057B20A9057A04D4
:1032AA00E733F719DAFAA905E792E0F7A8047A05ED
:1032BA00E636D4F618DAF9DBE3E8240AF8A9047A40
:1032CA0005E7540FF618E7C4540FF61819DAF22274
:1032DA0012329218880489059033057B20C3A90508
:1032EA007A0AE7540F92E493F7A2E709DAF4A804FA
:1032FA007A04E613F618DAFADBE322008001810287
:10330A008203830484000000000000058506860706
:10331A008708880989C3EA9508700FEB9509700830
:10332A00EC950A7003ED950BC2D222E5836010E496
:10333A0093FA740193FB740293FC740393FD22A81D
:10334A0082E6FA08E6FB08E6FC08E6FD22E5836069
:10335A0014E493F508740193F509740293F50A7459
:10336A000393F50B22A882860808860908860A08AC
:10337A00860B22E5836014C082C083E0FAA3E0FBD7
:10338A00A3E0FCA3E0FDD083D08222A882E6FA085B
:10339A00E6FB08E6FC08E6FD22E5836010E0F50896
:1033AA00A3E0F509A3E0F50AA3E0F50B22A88286BB
:1033BA000808860908860A08860B22E4F8F50CF53F
:1033CA000DF50EF50FED4C4B4A600BE50845094526
:1033DA000A450B703722023479EAC39508403370E4
:1033EA0013EB9509402C700CEC950A40257005EDFD
:1033FA00950B401EE50B250BF50BE50A350AF50A78
:10340A00E5093509F509E5083508F50808E508303C
:10341A00E7C7E508C39A401A7015E5099B4013707F
:10342A000EE50A9C400C7007E50B9D40056003C33E
:10343A008012C3ED950BFDEC950AFCEB9509FBEAAE
:10344A009508FAD3E50F33F50FE50E33F50EE50DC2
:10345A0033F50DE50C33F50CE508C313F508E5095A
:10346A0013F509E50A13F50AE50B13F50BD8A38D35
:10347A000B8C0A8B098A08AD0FAC0EAB0DAA0C2275
:10348A00ED850BF0A4F50F85F00EED850AF0A42565
:10349A000EF50EE5F03400F50DED8509F0A4250DC5
:1034AA00F50DE5F03400F50CED8508F0A4250CF5D2
:1034BA000CEC850BF0A4250EF50EE5F0350DF50D97
:1034CA00E50C3400F50CEC850AF0A4250DF50DE5A4
:0D34DA00F0350CF50CEC8509F0A4250CF57F
:1034E7000CEB850BF0A4250DF50DE5F0350CF50C6F
:1034F700EB850AF0A4250CF50CEA850BF0A4250C46
:10350700FAAB0DAC0EAD0F22EDC3950BFDEC950A92
:10351700FCEB9509FBEA9508FA22C3ED26FD18ECAA
:1035270036FC18EB36FB18EA36FA22C3E22DFD18F3
:10353700E23CFC18E23BFB18E23AFA22C3E02DFD1D
:1035470012355AE03CFC12355AE03BFB12355AE083
:103557003AFA22C0D0C3E5829401F582E58394004C
:05356700F583D0D02225
:10009E00EA54805307404207EB33EA33F8600643D5
:1000AE0003807A0022E4FAFBFCFDF822E5081354E3
:1000BE00405307804207E50933E50833F9600743EB
:1000CE00098075080022E4F508F509F50AF50B22FA
:1000DE00E8C3135307804FFAE803548053037F425B
:1000EE000322E860C0EA6023EAB4010DED2401FDAD
:1000FE00E43CFCE43BFBE43AFAC3EA13FAEB13FBF1
:10010E00EC13FCED13FD08EA70DE224B4C4D6095AE
:10011E00EB20E710C3ED33FDEC33FCEB33FBEA339E
:10012E00FA1880EC22E8C399502908C3EA13FAEBB7
:10013E0013FBEC13FCED13FDE8B501EE2209C3E54C
:10014E000813F508E50913F509E50A13F50AE50B99
:10015E0013F50BE8B501E622C007C006C001C000CA
:10016E00119E11BA3133E50730E70DC3E49DFDE46E
:10017E009CFCE49BFBE49AFAE50730E615C3E49594
:10018E000BF50BE4950AF50AE49509F509E49508D3
:10019E00F508ED250BFDE50A3CFCE5093BFBE50802
:1001AE003AFAE4FFEA30E70EFFC3E49DFDE49CFC5F
:1001BE00E49BFBE49AFA11F011DED000D001D006D8
:1001CE00D007226308808090EA650830E706EA339C
:1001DE005001D322C3EA95087010EB9509700BEC11
:1001EE00950A7006ED950B7001228AF030F7FAB27F
:1001FE00E74401B322C007C006C001C000119E1122
:10020E00BAE4F50CF50DF50EF50F7E07C3E50813F0
:10021E00F508E50913F509E50A13F50AE50B13F5DB
:10022E000B5014ED250FF50FE50E3CF50EE50D3BCD
:10023E00F50DE50C3AF50CED33FDEC33FCEB33FB31
:10024E00EA33FADEC77E118015C3E50C13F50CE513
:10025E000D13F50DE50E13F50EE50F13F50FC3E5B2
:10026E000813F508E50913F509E50A13F50AE50B78
:10027E0013F50B5014ED250FF50FE50E3CF50EE5BD
:10028E000D3BF50DE50C3AF50CDEBEE829247AF8A7
:10029E00EF236207AA0CAB0DAC0EAD0F11F011DE01
:1002AE00D000D001D006D00722C007C006C001C0C2
:1002BE0000119E11BAE4F50CF50DF50EF50FE9607F
:1002CE0067E86064C3992478F8EF2362077E1FC342
:1002DE00E50F33F50FE50E33F50EE50D33F50DE5B0
:1002EE000C33F50CC3EA950840287013EB950940C2
:1002FE0021700CEC950A401A7005ED950B4013ED2C
:10030E00950BFDEC950AFCEB9509FBEA9508FA4373
:10031E000F01ED33FDEC33FCEB33FBEA33FADEAFCA
:10032E00AA0CAB0DAC0EAD0F11F011DED000D0014A
:10033E00D006D00722C007C006C001C000EAB4BF75
:10034E0009EB7006EC7003ED6024119EE824822008
:10035E00E71CEF30E70DC3E49DFDE49CFCE49BFB42
:10036E00E49AFAE8246A20E727F824F8500EE4FA13
:10037E00FBFCFDD000D001D006D00722E8FE60F3D2
:10038E00ED33FDEC33FCEB33FBEA33FADEF280E3C4
:10039E00F4FE6022EF30E70FD3EA13FAEB13FBEC17
:1003AE0013FCED13FD800DC3EA13FAEB13FBEC13F4
:1003BE00FCED13FDDEDEED2401FDE43CFCE43BFB35
:1003CE00E43AFAEF30E70FD3EA13FAEB13FBEC1330
:1003DE00FCED13FD809DC3EA13FAEB13FBEC13FC4B
:1003EE00ED13FD808EED23FC9CFCFBFA8006EC23C6
:1003FE00FB9BFBFAC007C006C001C000EA5480FF99
:0D040E0030E70DC3E49DFDE49CFCE49BFB86
:10041B00E49AFA789611F011DED000D001D006D014
:10042B0007227C00E4FBFAC007C006C001C0007FB6
:10043B000080E075A80075B601758F037400F07528
:10044B008F0075B60075A880228A838B82E493F5A2
:10045B0008A3E493F509A3E493F50AA3E493F50B3E
:10046B00228A838B82E493FAA3E493FBA3E493FCA9
:10047B00A3E493FD2275A80075B601758F01E3F017
:10048B00758F0075B600A309DFEE75A880228A83ED
:10049B008B827FFFE493F3A309DFF922E508F608CB
:0C04AB00E509F608E50AF608E50BF62264
:00000001FF
